:020000000828CE
:020008007E2850
:1000100003138316850106148614061586158701B9
:10002000031383160113961416150C140317831665
:10003000880189010313831285018701F3010608F2
:10004000F4000B308F00DC308E000C100B108B1581
:10005000303090003D200B178B17730887006C2001
:100060003D20730E0F39F20072080A3A03194B2033
:1000700072080C3A031963202D288B138619452822
:100080000B128B100C101014492810100C108B1030
:100090000B168B1708008B13F3196128731C552856
:1000A000731D5928F31C5B285928F31C5928731D0C
:1000B0005B28F3156128731C6028F3017314612811
:1000C000F3018B1708008B13731C6828F3016A284F
:1000D0000130F3008B170800F31D6F287228731C82
:1000E00075287728731C79287B280C307C282130D0
:1000F0007C280A307C28113085000800F000030EAF
:10010000F1008B188C200B1890200C189D20710E7C
:100110008300F00E700E09001030F3078B100800FA
:100120000608F50074067505F600F618F31476193E
:1001300073157508F4000B1008000C100B308F00BD
:0A014000DC308E001030F3070800D9
:04400E00F120FF3F5F
:00000001FF
