:020000000828CE
:0200080063286B
:1000100003138316850187010C14031783168801C7
:1000200089010313831285018701F3010B308F00CF
:10003000DC308E000C100B128B11313090000B173E
:100040008B17730887005120730E0F39F200720866
:100050000A3A0319302072080C3A03194820212863
:100060008B13F3194628731C3A28731D3E28F31C82
:1000700040283E28F31C3E28731D4028F3154628CF
:10008000731C4528F30173144628F3018B170800ED
:100090008B13731C4D28F3014F280130F3008B178D
:1000A0000800F31D54285728731C5A285C28731C19
:1000B0005E2860280C306128213061280A306128D0
:1000C000113085000800F000030EF1000C186D20BF
:1000D000710E8300F00E700E09000C100B308F00B3
:0A00E000DC308E001030F30708003A
:04400E00F120FF3F5F
:00000001FF
