:020000000828CE
:020008004F287F
:100010000313831606140616861687010313831628
:100020000113161696160317831688018901031308
:1000300083128701F6010608F2000B108B108B1556
:100040000B168B1776088700760E0F39F5007508AA
:10005000033A031930207508043A03194620222870
:100060008B13F6194428761C3A28F61C4328761977
:1000700043283F28761D4328F61843283F28760852
:100080000939F6004428F6158B1708008B13761CE7
:100090004B28F6014D280130F6008B170800F000C0
:1000A000030EF1008B185B200B185F20710E83008C
:1000B000F00E700E0900760EF6078B100800060889
:1000C000F30072067305F400741AF614F41A761528
:0800D0007308F2000B10080098
:04400E00F120FF3F5F
:00000001FF
